:020000040800F2
:1000000068060020CD0100089D0500088104000855
:100010009905000887020008E908000800000000B0
:100020000000000000000000000000006906000859
:100030008B02000800000000250600085507000894
:10004000E7010008E7010008E7010008E7010008F0
:10005000E7010008E70100088D020008E902000836
:10006000E7010008E7010008E7010008E7010008D0
:10007000E7010008E7010008E7010008E7010008C0
:10008000E7010008E7010008E7010008E7010008B0
:10009000E7010008E7010008E7010008E7010008A0
:1000A000E7010008E7010008E7010008E701000890
:1000B000B9070008E7010008E7010008E7010008A8
:1000C000E7010008E7010008E7010008E701000870
:1000D000E7010008E7010008E7010008E701000860
:1000E000C1020008E7010008E7010008E701000875
:1000F000E7010008E7010008E7010008E701000840
:10010000E7010008E7010008E7010008E70100082F
:10011000E7010008E7010008E7010008E70100081F
:10012000E7010008E7010008E7010008E70100080F
:1001300000F002F800F03AF80AA090E8000C8244BF
:100140008344AAF10107DA4501D100F02FF8AFF29C
:10015000090EBAE80F0013F0010F18BFFB1A43F0A5
:1001600001031847C8070000E8070000103A24BF41
:1001700078C878C1FAD8520724BF30C830C144BF0C
:1001800004680C607047000000230024002500264E
:10019000103A28BF78C1FBD8520728BF30C148BFEA
:1001A0000B6070471FB51FBD10B510BD00F031F8D2
:1001B0001146FFF7F7FF00F099FB00F04FF803B48A
:1001C000FFF7F2FF03BC00F057F800000948804732
:1001D00009480047FEE7FEE7FEE7FEE7FEE7FEE729
:1001E000FEE7FEE7FEE7FEE704480549054A064B41
:1001F000704700005907000831010008680000201E
:1002000068060020680200206802002070477047DE
:100210007047754600F02CF8AE4605006946534617
:1002200020F00700854618B020B5FFF7DDFFBDE8D8
:1002300020404FF000064FF000074FF000084FF04D
:10024000000B21F00701AC46ACE8C009ACE8C009DE
:10025000ACE8C009ACE8C0098D46704710B504464B
:10026000AFF300802046BDE81040FFF7A8BF0000B4
:10027000004870470800002001491820ABBEFEE787
:1002800026000200704700BFFEE7704710B501204E
:1002900000F04AF801280DD10221074800F0E3F8E8
:1002A00028B906480088401E00B204490880012091
:1002B00000F034F810BD00000018014002000020DA
:1002C00010B54FF4804000F02FF8012808D1054800
:1002D0000088401C034908804FF4804000F01EF85D
:1002E00010BD00000000002010B5022000F01CF836
:1002F00001280DD10121074800F0B5F828B90648BA
:100300000088401C00B204490880022000F006F872
:1003100010BD0000001801400200002001490860E3
:100320007047000014040140014600200022074BE2
:100330001B6803EA0102054B14331B680B4013B121
:100340000AB1012000E000207047000000040140D5
:100350002DE9F0410246002500260020002300245C
:10036000002791F803C00CF00F0591F803C00CF0C2
:10037000100CBCF1000F03D091F802C04CEA050547
:1003800091F800C0BCF1000F31D0146800202BE0C0
:100390004FF0010C0CFA00F3B1F800C00CEA0306B0
:1003A0009E4220D183004FF00F0C0CFA03F7BC43A0
:1003B00005FA03FC4CEA040491F803C0BCF1280FD1
:1003C00006D14FF0010C0CFA00FCC2F814C00AE090
:1003D00091F803C0BCF1480F05D14FF0010C0CFAA5
:1003E00000FCC2F810C0401C0828D1D31460B1F83A
:1003F00000C0BCF1FF0F34DD546800202EE000F196
:10040000080C4FF0010808FA0CF3B1F800C00CEA30
:1004100003069E4221D183004FF00F0C0CFA03F724
:10042000BC4305FA03FC4CEA040491F803C0BCF198
:10043000280F05D100F1080C08FA0CF8C2F8148056
:1004400091F803C0BCF1480F07D100F1080C4FF040
:10045000010808FA0CF8C2F81080401C0828CED316
:100460005460BDE8F0810246002093680B400BB158
:10047000012000E000207047416170470161704732
:1004800000BFFEE71FB50121084600F0CDF84FF090
:10049000804000F0D1F90020ADF80A00ADF8060068
:1004A00042F20F70ADF8080041F61F40ADF80400AD
:1004B00000208DF80C0001A94FF0804000F0C2F937
:1004C0000121880700F08CF901221146900700F005
:1004D000AAF94FF4A06000F09BF81C208DF80000F2
:1004E00001208DF8030002208DF8010001208DF815
:1004F0000200684600F054F80121880700F076F900
:100500001FBD000008B50121482000F09DF8102013
:100510008DF8030003208DF802002020ADF80000C4
:1005200069460948FFF714FF2020ADF8000069462E
:100530000648FFF70DFF20210348FFF79FFF20210A
:100540000248FFF79BFF08BD000C01400018014066
:1005500070B505460C4665B924B920210C48FFF753
:100560008DFF14E0012C12D120210948FFF784FFF0
:100570000DE0012D0BD124B920210648FFF77EFFA5
:1005800005E0012C03D120210248FFF775FF70BD63
:10059000000C01400018014000BFFEE7704700005A
:1005A00070B5002100230F22C47804B3154C2468D1
:1005B00004F4E064C4F5E064210AC1F10403CA4014
:1005C000447804FA03F184781440214309010E4C65
:1005D0000678A155047804F01F050124AC40057885
:1005E0006D11AD0005F1E025C5F8004109E0047882
:1005F00004F01F050124AC40044D0678761145F83F
:10060000264070BD0CED00E000E400E080E100E079
:1006100002490143024A1160704700000000FA05D8
:100620000CED00E07047000029B1064AD269024390
:10063000044BDA6104E0034AD2698243014BDA6178
:10064000704700000010024029B1064A9269024337
:10065000044B9A6104E0034A92698243014B9A6118
:100660007047000000100240704710B500F002F81B
:1006700010BD00000CB500200190009033480068C8
:1006800040F480303149086000BF3048006800F411
:10069000003000900198401C0190009818B9019812
:1006A000B0F5A06FF1D12948006800F4003010B116
:1006B0000120009001E0002000900098012843D123
:1006C0002348006840F0100021490860084600688F
:1006D00020F0030008600846006840F0020008604F
:1006E0001A4840681949486008464068486008460A
:1006F000406840F4806048600846406820F47C1000
:1007000048600846406840F4E810486008460068C1
:1007100040F08070086000BF0C48006800F0007076
:100720000028F9D00948406820F0030007494860D4
:100730000846406840F00200486000BF0348406837
:1007400000F00C000828F9D10CBD00000010024098
:10075000002002407047000010B51348006840F0C8
:1007600001001149086008464068104908400E49D8
:100770004860084600680E4908400B490860084672
:10078000006820F4802008600846406820F4FE00DD
:1007900048604FF41F008860FFF767FF4FF000606C
:1007A0000449086010BD0000001002400000FFF87E
:1007B000FFFFF6FE08ED00E010B50121880700F00C
:1007C00021F8012808D105480078401C0349087029
:1007D0000121880700F007F810BD00000400002088
:1007E000CA4302827047CA430282704721B102881D
:1007F00042F00102028004E002884FF6FE731A40C4
:100800000280704730B50246002000230024158A7C
:1008100005EA0103958905EA010413B10CB1012031
:1008200000E0002030BD1AB183890B43838102E0D0
:1008300083898B438381704701894FF6F872114099
:1008400001817047002202881D4B98420ED01D4B3B
:1008500098420BD0B0F1804F08D01B4B984205D086
:100860001A4B984202D01A4B984204D14FF68F731C
:100870001A404B881A43174B984207D0164B9842A0
:1008800004D04FF6FF431A40CB881A4302808B886E
:1008900083850B8803850A4B98420BD0094B9842FD
:1008A00008D00E4B984205D00D4B984202D00D4B0C
:1008B000984201D10B7A038601238382704700009E
:1008C000002C0140003401400004004000080040BA
:1008D000000C0040001000400014004000400140A7
:1008E000004401400048014000BFFEE7FFF70AFE58
:1008F000FFF7C8FD16E00C48047804EBD4704010F4
:10090000A4EB4000C1B20020FFF722FE06480078A9
:10091000441C04EBD4704010A4EB4000C1B2012091
:10092000FFF716FEE7E70000040000204C0900086E
:1009300000000020080000006C01000854090008B5
:100940000800002060060000880100080000000088
:0409500000000000A3
:0400000508000131BD
:00000001FF
